:04000300020801C727
:10014300D3EF9400EE940040147D727C00ED1D709B
:0D015300011CED4C70F7EF1F70E61E80E3FD
:01016000227C
:10016100D2AFD2A9D28C758902758CDC758ADC225A
:03000B00020110DF
:10011000C0E0C0D0758CE6758AE6050BE50B700271
:10012000050AB5090DE50AB50808750A00750B0042
:10013000D290E50DB50B07E50CB50A02C290D0D000
:03014000D0E032DA
:03009A00120161EF
:10009D00750C01750D90E4F50EF50FC3E50F95097F
:1000AD00E5086480F8E50E64809850E4E50D150DC3
:1000BD007002150C7F017E00120143E50D450C7099
:1000CD0038F510F511C3E5119509E5086480F8E5DB
:1000DD001064809850237F017E00120143050DE5C9
:1000ED000D7002050C65097004E50C6508600AE5E4
:1000FD0011151170D0151080CC050FE50F709C05F2
:03010D000E8098C9
:0300000002000EED
:0C000E00787FE4F6D8FD758111020055E2
:10001A0002009AE493A3F8E493A34003F68001F262
:10002A0008DFF48029E493A3F85407240CC8C333E7
:10003A00C4540F4420C8834004F456800146F6DFB6
:10004A00E4800B0102040810204080900003E47E43
:10005A00019360BCA3FF543F30E509541FFEE493AB
:10006A00A360010ECF54C025E060A840B8E493A372
:10007A00FAE493A3F8E493A3C8C582C8CAC583CA9D
:10008A00F0A3C8C582C8CAC583CADFE9DEE780BE55
:0100070000F8
:00000001FF
